S014000050696E67506F6E6747616D652E7372656374
S11300000C9460030C94DE050C947D030C947D0326
S11300100C947D030C947D030C947D030C947D035C
S11300200C947D030C947D030C947D030C947D034C
S11300300C947D030C947D030C947D030C947D033C
S11300400C947D030C947D030C947D030C947D032C
S11300500C947D030C947D030C947D030C947D031C
S11300600C947D030C947D030C947D030C947D030C
S113007000000000005C00000C000C007C287C28C0
S113008058DC68002410480028542840000C000064
S1130090007884008478000054385400107C1000E8
S11300A080400000101010000040000060100C00A0
S11300B038543800487C40004864580044542C00AC
S11300C01C107C005C5424003854240064140C007C
S11300D068542C0048543800004800008048000050
S11300E0102844002828280044281000045408003C
S11300F038445C00781478007C5428003844280084
S11301007C4438007C5444007C140400384474005B
S11301107C107C00447C440020403C007C106C003B
S11301207C4040007C187C0078103C003844380047
S11301307C1408003844B8007C1468004854240037
S1130140047C04007C407C003C603C007C307C00EF
S11301506C106C000C700C0064544C00007C440067
S11301600C106000447C00000804080080808000BB
S113017000040800304878007C48300030484800CB
S113018030487C00306850001078140090A8780043
S11301907C08700050744000808074007C106800FB
S11301A0447C4000781078007808700030483000B3
S11301B0F82810003048F80078100800505828003B
S11301C0083C4800384078003840380078207800EF
S11301D04830480098A07800486858001078840097
S11301E0007C00008478100008040804000000006B
S11301F00000005F00000007000700147F147F1454
S1130200242A7F2A12231308646236495522500097
S113021005030000001C2241000041221C00082AA2
S11302201C2A0808083E0808005030000008080886
S11302300808006060000020100804023E5149458F
S11302403E00427F400042615149462141454B31C5
S11302501814127F1027454545393C4A4949300155
S1130260710905033649494936064949291E0036AC
S113027036000000563600000008142241141414FD
S1130280141441221408000201510906324979412B
S11302903E7E1111117E7F494949363E414141223A
S11302A07F4141221C7F494949417F090901013E9F
S11302B0414151327F0808087F00417F41002040BE
S11302C0413F017F081422417F404040407F0204A7
S11302D0027F7F0408107F3E4141413E7F090909A6
S11302E0063E4151215E7F09192946464949493153
S11302F001017F01013F4040403F1F2040201F7FFC
S11303002018207F631408146303047804036151E4
S113031049454300007F4141020408102041417FC8
S11303200000040201020440404040400001020475
S11303300020545454787F4844443838444444207A
S1130340384444487F3854545418087E090102083C
S11303501454543C7F0804047800447D4000204039
S1130360443D00007F10284400417F40007C041875
S113037004787C0804047838444444387C14141405
S113038008081414187C7C080404084854545420A5
S1130390043F4440203C4040207C1C2040201C3C26
S11303A04030403C44281028440C5050503C446495
S11303B0544C44000836410000007F0000004136E0
S11303C00800020103020100000000000000000018
S11303D0065F5F060000000007070007070000141F
S11303E07F7F147F7F1400242E6B6B3A120000462B
S11303F06630180C666200307A4F5D377A48000424
S113040007030000000000001C3E634100000000E0
S113041041633E1C000000082A3E1C1C3E2A0808BA
S1130420083E3E0808000000A0E06000000000084C
S11304300808080808000000006060000000006070
S113044030180C060301003E7F594D7F3E000042E8
S1130450427F7F40400000627359496F660000226A
S11304606349497F360000181C16137F7F1000274C
S11304706745457D3900003C7E4B497930000003D7
S11304806371190F070000367F49497F3600000663
S11304904F49693F1E000000006C6C000000000022
S11304A0A0EC6C00000000081C366341000000143E
S11304B014141414140000004163361C08000002D4
S11304C00351590F0600003E7F415D5D1F1E007CF5
S11304D07E13137E7C0000417F7F49497F36001CD8
S11304E03E634141632200417F7F41637F1C0041A1
S11304F07F7F495D416300417F7F491D0103001CEB
S11305003E6341517372007F7F08087F7F000000C3
S1130510417F7F41000000307040417F3F01004136
S11305207F7F081C776300417F7F41406070007FBC
S11305307F060C067F7F007F7F060C187F7F001CE0
S11305403E6341633E1C00417F7F49090F06001E44
S11305503F21717F5E0000417F7F19396F4600267D
S1130560674D597B32000003417F7F410300007FC8
S11305707F40407F7F00001F3F60603F1F00007F7F
S11305807F3018307F7F0063771C081C7763000777
S11305904F78784F0700006773594D476371000027
S11305A07F7F41410000000103060C183060000009
S11305B041417F7F000000080C0603060C08008000
S11305C08080808080808000000307040000002079
S11305D07454543C784000413F7F44447C38003894
S11305E07C44446C280000307848493F7F40003800
S11305F07C54545C180000487E7F49030200009834
S1130600BCA4A4F87C0400417F7F08047C7800002B
S1130610447D7D4000000040C484FD7D0000004115
S11306207F7F10386C440000417F7F400000007CD5
S11306307C0C180C7C78007C7C04047C78000038EA
S11306407C44447C38000084FCF8A4243C18001842
S11306503C24A4F8FC8400447C78441C1800004822
S11306605C54547424000000043E7F442400003C85
S11306707C40403C7C40001C3C60603C1C00003CD6
S11306807C6030607C3C00446C3810386C44009CC6
S1130690BCA0A0FC7C00004C64745C4C64000008AA
S11306A0083E7741410000000000777700000041D8
S11306B041773E0808000002030103020301000021
S11306C011241FBECFEFD4E0DEBFCDBF12E0A0E007
S11306D0B1E0EAECFAE102C005900D92A035B10751
S11306E0D9F722E0A0E5B2E001C01D92A036B2071E
S11306F0E1F70E941D050C94630D0C94000081B376
S1130700806181BB89E683BFEBE8F0E08081826889
S11307108083EAE8F0E080818961808385E090E06D
S1130720909381008093800082E090E09093870012
S1130730809386000895E0E0F4E181E0808386EA16
S11307408A95F1F700C0608170818081908108955D
S11307500E949B037093510260935002089568179E
S1130760A8F4462F50E0282F30E0241B350B62E319
S1130770629FC001639F900D11246FEF70E0641BB2
S1130780750B0E94DF07CB01C2960895861748F4C3
S113079022E3829FC001112470E00E94DF07CB0195
S11307A0089582E390E008958F929F92AF92BF9252
S11307B0CF92DF92EF92FF92CF93DF93EC010E94EE
S11307C09B03B62E872F2FEF40E0609151020E94C9
S11307D0AF03BC01990F880B990B0E947B076B0137
S11307E07C01688379838A839B832FEF40E0609147
S11307F050028B2D0E94AF03BC01990F880B990BFB
S11308000E947B074B015C016C837D838E839F83F5
S113081084E0888B20E030E046E952E4C701B60169
S11308200E94DA071816FCF020E030E048EC51E4AE
S1130830C701B6010E9474078823ACF020E030E0C1
S113084046E952E4C501B4010E94DA0718165CF0C7
S113085020E030E048EC51E4C501B4010E94740783
S113086088230CF064C020E030E048E452E4C50181
S1130870B4010E94DA071816BCF420E030E048EC1A
S113088051E4C701B6010E94DA0718166CF420E09F
S113089030E046E952E4C701B6010E947407882398
S11308A01CF482E0888B43C020E030E048E452E44A
S11308B0C701B6010E9474078823B4F420E030E035
S11308C048EC51E4C501B4010E94DA07181664F437
S11308D020E030E046E952E4C501B4010E94740707
S11308E0882314F4188A23C020E030E048E452E45A
S11308F0C501B4010E9474078823BCF420E030E0F1
S113090048EC51E4C701B6010E94DA0718166CF4EA
S113091020E030E046E952E4C701B6010E947407C2
S113092088231CF483E0888B02C081E0888BDF91EC
S1130930CF91FF90EF90DF90CF90BF90AF909F90BA
S11309408F900895EF92FF920F931F93CF93DF93AD
S11309508AE091E00E94C4080E9453087C010E942E
S11309605808C0E0D0E000E010E020C00E94530826
S1130970FE01F85E808320812817B9F099279F93A0
S11309808F931F922F93DF93CF9380E291E09F93F5
S11309908F930E94AE080F5F1F4F8DB79EB70896C6
S11309A00FB6F8949EBF0FBE8DBF2196C11598E077
S11309B0D907E0F2C7010E945808C0E0D0E0E12C5A
S11309C0F12C20C00E945308FE01F85E20812817F4
S11309D0C1F099279F938F931F922F93DF93CF9307
S11309E089E591E09F938F930E94AE088FEFE81AF8
S11309F0F80A8DB79EB708960FB6F8949EBF0FBE3F
S1130A008DBF2196C11598E0D907E0F2FF92EF92CD
S1130A101F930F9386E991E09F938F930E94AE08F2
S1130A200F900F900F900F900F900F90DF91CF9138
S1130A301F910F91FF90EF9008958FE190E00E9435
S1130A40650760E777E08CE697E00E9463080E9400
S1130A507F0385B7806885BF80B7877880BF80B7FC
S1130A60806280BF86B78C6086BF8BEF81BB8BB7FB
S1130A7080648BBF85B7826085BF78940E94A2048E
S1130A800E94A803109253020E94FE050E946A0667
S1130A900E947E060E946306809154029091550242
S1130AA00E94F806E0915402F091550282E080839E
S1130AB0E0915402F0915502118280935202E09128
S1130AC05402F09155026081818170E090E00E94AF
S1130AD02A07C0E0D0E0CE010E94D40380915202E4
S1130AE01F928F938FEE91E09F938F930E94AE0895
S1130AF088890F900F900F900F908330D1F464E0A9
S1130B0070E080915402909155020E943F07E09159
S1130B105402F091550280811F928F938AEF91E0E5
S1130B209F938F930E94AE080F900F900F900F9099
S1130B301BC08230C9F462E070E08091540290914D
S1130B4055020E943F07E0915402F09155028081C2
S1130B501F928F938AEF91E09F938F930E94AE0828
S1130B600F900F900F900F90809152021F928F93CD
S1130B7084E092E09F938F930E94AE088091530289
S1130B800F900F900F900F90882309F4A2CF8091BB
S1130B9052021F928F938FE092E09F938F930E9453
S1130BA0AE0880915402909155020E94560710920B
S1130BB053020F900F900F900F908BCF1F920F92B4
S1130BC00FB60F9211248F938AB78F7B8ABF81E06F
S1130BD0809353028F910F900FBE0F901F90189522
S1130BE08093001281E28A95F1F7000008958093C2
S1130BF0001081E28A95F1F7000008958EEA0E94C0
S1130C00F70581EA0E94F7058AED0E94F70582E163
S1130C100E94F70588EC0E94F70588EA0E94F70510
S1130C208FE30E94F70585ED0E94F70580E80E9496
S1130C30F70581E80E94F70580E50E94F70589ED34
S1130C400E94F70581E20E94F70580E20E94F70501
S1130C5080E00E94F70580E40E94F7058BED0E9476
S1130C60F70580E30E94F7058DEA0E94F70580E00E
S1130C700E94F70584EA0E94F70586EA0E94F705B8
S1130C808FEA0E94F70508950F931F93CF93DF9384
S1130C90082F162FD42FC22F81E20E94F705802F30
S1130CA00E94F705812F0E94F70582E20E94F70552
S1130CB08D2F0E94F7058C2F0E94F705DF91CF91AD
S1130CC01F910F91089527E040E06FE780E00E94B4
S1130CD044060895CF93DF930E946306C0E0D0E0FA
S1130CE004C080E00E94F0052196C11584E0D80775
S1130CF0C4F30E946306DF91CF91089580E20E94BD
S1130D00F70580E00E94F70508958F929F92AF92B5
S1130D10BF92DF92EF92FF920F931F93CF93DF93D3
S1130D207C014A015B01D22E00E010E04BC085E05B
S1130D30D816A9F088E0D81225C0F701E00FF11FFA
S1130D40E081F0E0B097EE0FFF1FEE0FFF1FEE0FF4
S1130D50FF1FEC0FFD1FE953FC4F849122C0F701E4
S1130D60E00FF11F808190E08097FC01EE0FFF1FE0
S1130D70EE0FFF1FE80FF91FEC0FFD1FE451FE4FAC
S1130D8084910FC0F701E00FF11FE081F0E0B0970C
S1130D90EE0FFF1FEE0FFF1FEC0FFD1FE059FF4F7B
S1130DA084910E94F005219602C0C0E0D0E08D2D10
S1130DB090E0C817D9070CF4BACF80E00E94F00580
S1130DC00F5F1F4FC801012E000CAA0BBB0B881527
S1130DD09905AA05BB0548F3DF91CF911F910F91A7
S1130DE0FF90EF90DF90BF90AF909F908F90089509
S1130DF00E946A060E94630627E040E06FE788E0ED
S1130E000E94440628E044E050E060E070E080E2A4
S1130E1092E00E94850627E042E06FE788E00E94A6
S1130E20440625E04AE050E060E070E085E292E0AC
S1130E300E94850627E044E06FE788E00E944406AC
S1130E4025E048E050E060E070E080E392E00E943A
S1130E5085060895462F27E06FE70E94440688E13F
S1130E600E94F00588E10E94F0058EE70E94F005DB
S1130E708CE30E94F00588E10E94F00508950F9329
S1130E801F93CF938C01C62F0E946A06C8010E944B
S1130E90F8066C2FF80181810E942A07F801C083AB
S1130EA0C0935202CF911F910F91089580915202E5
S1130EB01F928F9389E392E09F938F930E94AE08D1
S1130EC00F900F900F900F90089590BD89B988E10D
S1130ED08AB98EE880BD08955D9BFECF8CB90895D4
S1130EE05F9BFECF8CB108950E94B60708F481E0A1
S1130EF00895E89409C097FB3EF490958095709509
S1130F0061957F4F8F4F9F4F9923A9F0F92F96E951
S1130F10BB279395F695879577956795B795F111C6
S1130F20F8CFFAF4BB0F11F460FF1BC06F5F7F4F63
S1130F308F4F9F4F16C0882311F096E911C0772375
S1130F4021F09EE8872F762F05C0662371F096E87E
S1130F50862F70E060E02AF09A95660F771F881F4D
S1130F60DAF7880F9695879597F90895990F0008F1
S1130F70550FAA0BE0E8FEEF16161706E807F90767
S1130F80C0F012161306E407F50798F0621B730B02
S1130F90840B950B39F40A2661F0232B242B252B83
S1130FA021F408950A2609F4A140A6958FEF811D26
S1130FB0811D08950E94B60708F48FEF089597FBEA
S1130FC0072E16F4009407D077FD09D00E94F3078A
S1130FD007FC05D03EF4909581959F4F0895709538
S1130FE061957F4F0895AA1BBB1B51E107C0AA1F3F
S1130FF0BB1FA617B70710F0A61BB70B881F991FB6
S11310005A95A9F780959095BC01CD0108958F92CA
S11310109F92AF92BF92CF92DF92EF92FF92CF93C3
S1131020DF93EC01688179818A819B816115710567
S11310308105910521F464E279ED8BE597E02DE1DA
S113104033EF41E050E00E94C90C49015A019B0171
S1131050AC01A7EAB1E40E94E80C6B017C01ACEEA0
S1131060B4EFA50194010E94F60CDC01CB018C0DB8
S11310709D1DAE1DBF1DB7FF03C00197A109B04858
S113108088839983AA83BB839F77DF91CF91FF9055
S1131090EF90DF90CF90BF90AF909F908F90089586
S11310A00E940708089580E091E00E9407080895CF
S11310B0A0E0B0E08093000190930101A0930201AD
S11310C0B093030108950F931F93CF93DF93009779
S11310D031F46115710519F480E090E03AC08B0198
S11310E0EC016EE070E081E090E00E94D50AFC0122
S11310F0892B91F380E883830115110571F013871F
S1131100028781E883838091560290915702892B4C
S113111021F4F0935702E09356022097C9F0D18747
S1131120C0878381826083838091580290915902A1
S1131130892B71F4F0935902E093580280915A027A
S113114090915B02892B21F4F0935B02E0935A02A5
S1131150CF01DF91CF911F910F910895A0E0B0E0EE
S1131160E4EBF8E00C940B0DAE014B5F5F4FFA011A
S113117061917191AF0180915802909159020E943E
S1131180F408E2E00C94270D0F931F93CF93DF93A1
S1131190E0915802F0915902238121FF1BC08C0178
S11311A0D0E0C0E0F80181918F0160915802709104
S11311B05902DB011896ED91FC911997882331F0BF
S11311C00995892B79F3DFEFCFEFECCF8AE009950E
S11311D0892B19F08FEF9FEF02C08D2F9C2FDF9189
S11311E0CF911F910F910895ABE0B0E0EAEFF8E0E2
S11311F00C94FB0C6C017B018A01FC0117821682A2
S1131200838181FFCCC1CE0101963C01F60193811B
S1131210F70193FD859193FF81917F01882309F460
S1131220BAC1853239F493FD859193FF81917F0191
S1131230853229F4B60190E00E942F0CE7CF912C5F
S1131240212C312CFFE1F315D8F08B3279F038F4EE
S1131250803279F08332A1F4232D20611DC08D32B8
S113126061F0803369F4232D216016C0832D8260E0
S1131270382EE32DE4603E2E2AC0F32DF8601DC005
S113128037FC2DC020ED280F2A3040F08E32B9F4FF
S113129036FC81C1232D2064322E19C036FE06C0CF
S11312A08AE0989E200D1124922E11C0EAE02E9E11
S11312B0200D1124222EF32DF0623F2E08C08C360F
S11312C021F4832D8068382E02C0883641F4F7015A
S11312D093FD859193FF81917F018111B3CF982F65
S11312E09F7D9554933028F40C5F1F4F9FE399839F
S11312F00DC0833631F0833771F0833509F059C05E
S113130021C0F801808189830E5F1F4F8824839454
S1131310912C530113C02801F2E04F0E511CF80127
S1131320A080B18036FE03C0692D70E002C06FEF6B
S11313307FEFC5010E94240C4C018201F32DFF773D
S11313403F2E16C0280122E0420E511CF801A08055
S1131350B18036FE03C0692D70E002C06FEF7FEFED
S1131360C5010E94120C4C01F32DF0683F2E82013E
S113137033FC1BC0822D90E088169906B0F4B601A8
S113138080E290E00E942F0C2A94F4CFF50137FC00
S1131390859137FE81915F01B60190E00E942F0C88
S11313A021102A9421E0821A91088114910471F782
S11313B0E8C0843611F0893641F5F80137FE07C0DC
S11313C060817181828193810C5F1F4F08C06081AD
S11313D07181072E000C880B990B0E5F1F4FF32DA4
S11313E0FF763F2E97FF09C0909580957095619583
S11313F07F4F8F4F9F4FF0683F2E2AE030E0A301CC
S11314000E946B0C882E861845C0853731F4232D35
S11314102F7EB22E2AE030E025C0932D997FB92E7D
S11314208F36C1F018F4883579F0B5C0803719F0DB
S1131430883721F0B0C0E92FE061BE2EB4FE0DC0A4
S1131440FB2DF460BF2E09C034FE0AC0292F26608C
S1131450B22E06C028E030E005C020E130E002C032
S113146020E132E0F801B7FE07C06081718182811A
S113147093810C5F1F4F06C06081718180E090E012
S11314800E5F1F4FA3010E946B0C882E8618FB2D44
S1131490FF773F2E36FE0DC0232D2E7FA22E8914FA
S11314A058F434FE0BC032FC09C0832D8E7EA82E66
S11314B005C0B82CA32C03C0B82C01C0B92CA4FEC1
S11314C00FC0FE01E80DF11D8081803321F49A2DB7
S11314D0997EA92E09C0A2FE06C0B394B39404C099
S11314E08A2D867809F0B394A3FC11C0A0FE06C02F
S11314F0B21488F4280C922C9B180EC0B21460F419
S1131500B60180E290E00E942F0CB394F7CFB2149E
S113151018F42B1802C0982C212CA4FE10C0B6017C
S113152080E390E00E942F0CA2FE17C0A1FC03C030
S113153088E790E002C088E590E0B6010CC08A2DEF
S1131540867859F0A1FE02C08BE201C080E2A7FCBC
S11315508DE2B60190E00E942F0C891438F4B60194
S113156080E390E00E942F0C9A94F7CF8A94F301C1
S1131570E80DF11D8081B60190E00E942F0C8110CE
S1131580F5CF222009F442CEB60180E290E00E9419
S11315902F0C2A94F6CFF6018681978102C08FEF33
S11315A09FEF2B96E2E10C94170D0F931F93CF93AB
S11315B0DF93869F8001879F100D969F100D112445
S11315C0C8010E94F10AEC01009729F0A80160E02B
S11315D070E00E941D0CCE01DF91CF911F910F91FD
S11315E008950F931F93CF93DF938230910510F4E6
S11315F082E090E0E0915E02F0915F0220E030E052
S1131600A0E0B0E0309719F140815181028113814B
S113161048175907C8F08417950769F4109731F0F3
S113162012960C93129713961C9327C000935E0294
S113163010935F0222C02115310519F04217530798
S113164018F49A01BD01EF01DF01F801DBCF211588
S11316503105F9F0281B390B2430310580F48A81D7
S11316609B816115710521F0FB019383828304C082
S113167090935F0280935E02FE01329644C0FE01A5
S1131680E20FF31F81939193225031093983288308
S11316903AC020915C0230915D02232B41F42091E9
S11316A006013091070130935D0220935C02209182
S11316B00401309105012115310541F42DB73EB7E0
S11316C04091080150910901241B350BE0915C0203
S11316D0F0915D02E217F307A0F42E1B3F0B2817CD
S11316E0390778F0AC014E5F5F4F2417350748F097
S11316F04E0F5F1F50935D0240935C028193919360
S113170002C0E0E0F0E0CF01DF91CF911F910F9193
S11317100895CF93DF93009709F481C0FC013297B9
S113172013821282A0915E02B0915F02109781F43D
S113173020813181820F931F20915C0230915D02E0
S11317402817390751F5F0935D02E0935C0267C0F6
S1131750ED0120E030E0CE17DF0740F44A815B81E1
S11317609E0141155105F1F0EA01F5CFD383C283FF
S113177040815181840F951FC817D90759F4888176
S11317809981840F951F0296918380838A819B811E
S1131790938382832115310529F4F0935F02E0934A
S11317A05E023DC0E901FB83EA8349915991C40F6C
S11317B0D51FEC17FD0761F480819181840F951F7B
S11317C00296E90199838883828193819B838A832A
S11317D0E0E0F0E012968D919C911397009719F038
S11317E0FD01DC01F7CF8D919C9111979D012E5F36
S11317F03F4F820F931F20915C0230915D022817A6
S1131800390769F4309729F410925F0210925E024E
S113181002C013821282B0935D02A0935C02DF9136
S1131820CF910895FC010590615070400110D8F7E4
S1131830809590958E0F9F1F0895DC0101C06D93D4
S113184041505040E0F70895FC0161507040019010
S11318500110D8F7809590958E0F9F1F08950F93D0
S11318601F93CF93DF93FB01238121FD03C08FEFEF
S11318709FEF2CC022FF16C04681578124813581F9
S11318804217530744F4A081B1819D012F5F3F4F5C
S1131890318320838C93268137812F5F3F4F378399
S11318A0268314C08B01EC01FB010084F185E02D3B
S11318B00995892BE1F6D80116968D919C9117977D
S11318C0019617969C938E931697CE01DF91CF9134
S11318D01F910F910895FA01AA27283051F1203160
S11318E081F1E8946F936E7F6E5F7F4F8F4F9F4FB0
S11318F0AF4FB1E03ED0B4E03CD0670F781F891FF2
S11319009A1FA11D680F791F8A1F911DA11D6A0FBF
S1131910711D811D911DA11D20D009F468943F9172
S11319202AE0269F11243019305D3193DEF6CF0171
S11319300895462F4770405D4193B3E00FD0C9F737
S1131940F6CF462F4F70405D4A3318F0495D31FDA4
S11319504052419302D0A9F7EACFB4E0A6959795F7
S1131960879577956795BA95C9F7009761057105CD
S113197008959B01AC010A2E069457954795379517
S11319802795BA95C9F7620F731F841F951FA01D71
S11319900895052E97FB1EF400940E94E00C57FD59
S11319A007D00E94320D07FC03D04EF40C94E00CD7
S11319B050954095309521953F4F4F4F5F4F089577
S11319C090958095709561957F4F8F4F9F4F0895A7
S11319D00E94540DA59F900DB49F900DA49F800D5F
S11319E0911D11240895B7FF0C94E80C0E94E80C93
S11319F0821B930B08952F923F924F925F926F92A6
S1131A007F928F929F92AF92BF92CF92DF92EF928A
S1131A10FF920F931F93CF93DF93CDB7DEB7CA1B0B
S1131A20DB0B0FB6F894DEBF0FBECDBF09942A8836
S1131A30398848885F846E847D848C849B84AA84DE
S1131A40B984C884DF80EE80FD800C811B81AA816B
S1131A50B981CE0FD11D0FB6F894DEBF0FBECDBF36
S1131A60ED010895A1E21A2EAA1BBB1BFD010DC0B6
S1131A70AA1FBB1FEE1FFF1FA217B307E407F5073A
S1131A8020F0A21BB30BE40BF50B661F771F881F16
S1131A90991F1A9469F760957095809590959B01AC
S1131AA0AC01BD01CF010895A29FB001B39FC00155
S1131AB0A39F700D811D1124911DB29F700D811D76
S10D1AC01124911D0895F894FFCF3E
S1131ACA010000000000600220005374617274690E
S1131ADA6E67205352414D20746573742E2E2E0066
S1131AEA5772697465207068617365206572726FD4
S1131AFA723A206578745F72616D5B2534645D2087
S1131B0A3D2025303258202873686F756C64206232
S1131B1A652025303258290A00526574726965763F
S1131B2A616C207068617365206572726F723A2005
S1131B3A6578745F72616D5B2534645D203D202590
S1131B4A303258202873686F756C642062652025CA
S1131B5A303258290A005352414D20746573742057
S1131B6A636F6D706C657465642077697468200AA4
S1131B7A253464206572726F727320696E207772DD
S1131B8A69746520706861736520616E64200A2532
S1131B9A3464206572726F727320696E2072657480
S1131BAA72696576616C2070686173650A0A00520D
S1131BBA6F77313A2025640D0A00526F773A20254F
S1131BCA640D0A00526F774F3A2025640D0A0049C2
S1131BDA6E746572727570743A202564200D0A0059
S1131BEA4D656E750053746172742067616D65008A
S1131BFA53657474696E677300257520726F772054
S1131C0A69732073656C6563746564200D0A00004A
S9030000FC
