S014000050696E67506F6E6747616D652E7372656374
S11300000C94B8030C94A4060C94D5030C94D50357
S11300100C94D5030C94D5030C94D5030C94D503FC
S11300200C94D5030C94D5030C94D5030C94D503EC
S11300300C94D5030C94D5030C94D5030C94D503DC
S11300400C94D5030C94D5030C94D5030C94D503CC
S11300500C94D5030C94D5030C94D5030C94D503BC
S11300600C94D5030C94D5030C94D5030C94D503AC
S1130070084AD73B3BCE016E84BCBFFDC12F3D6C0B
S113008074319ABD56833DDA3D00C77F11BED9E471
S1130090BB4C3E916BAAAABE000000803F0763429E
S11300A036B79BD8A71A39685618AEBAAB558C1D0B
S11300B03CB7CC5763BD6DEDFD753EF6177231BF8D
S11300C0000000803F08000000BE922449123EABAD
S11300D0AAAA2ABECDCCCC4C3E00000080BEABAA5E
S11300E0AAAA3E00000000BF000000803F000000FC
S11300F00000084178D3BB4387D1133D190E3CC39C
S1130100BD4282AD2B3E68EC8276BED98FE1A93E1A
S11301104C80EFFFBE01C4FF7F3F000000000000E1
S113012000000000005C00000C000C007C287C280F
S113013058DC68002410480028542840000C0000B3
S1130140007884008478000054385400107C100037
S113015080400000101010000040000060100C00EF
S113016038543800487C40004864580044542C00FB
S11301701C107C005C5424003854240064140C00CB
S113018068542C004854380000480000804800009F
S1130190102844002828280044281000045408008B
S11301A038445C00781478007C54280038442800D3
S11301B07C4438007C5444007C14040038447400AB
S11301C07C107C00447C440020403C007C106C008B
S11301D07C4040007C187C0078103C003844380097
S11301E07C1408003844B8007C1468004854240087
S11301F0047C04007C407C003C603C007C307C003F
S11302006C106C000C700C0064544C00007C4400B6
S11302100C106000447C000008040800808080000A
S113022000040800304878007C483000304848001A
S113023030487C00306850001078140090A8780092
S11302407C08700050744000808074007C1068004A
S1130250447C400078107800780870003048300002
S1130260F82810003048F80078100800505828008A
S1130270083C48003840780038403800782078003E
S11302804830480098A078004868580010788400E6
S1130290007C0000847810000804080400000000BA
S11302A00000005F00000007000700147F147F14A3
S11302B0242A7F2A122313086462364955225000E7
S11302C005030000001C2241000041221C00082AF2
S11302D01C2A0808083E08080050300000080808D6
S11302E00808006060000020100804023E514945DF
S11302F03E00427F400042615149462141454B3115
S11303001814127F1027454545393C4A49493001A4
S1130310710905033649494936064949291E0036FB
S1130320360000005636000000081422411414144C
S1130330141441221408000201510906324979417A
S11303403E7E1111117E7F494949363E4141412289
S11303507F4141221C7F494949417F090901013EEE
S1130360414151327F0808087F00417F410020400D
S1130370413F017F081422417F404040407F0204F6
S1130380027F7F0408107F3E4141413E7F090909F5
S1130390063E4151215E7F091929464649494931A2
S11303A001017F01013F4040403F1F2040201F7F4B
S11303B02018207F63140814630304780403615134
S11303C049454300007F4141020408102041417F18
S11303D000000402010204404040404000010204C5
S11303E00020545454787F484444383844444420CA
S11303F0384444487F3854545418087E090102088C
S11304001454543C7F0804047800447D4000204088
S1130410443D00007F10284400417F40007C0418C4
S113042004787C0804047838444444387C14141454
S113043008081414187C7C080404084854545420F4
S1130440043F4440203C4040207C1C2040201C3C75
S11304504030403C44281028440C5050503C4464E4
S1130460544C44000836410000007F00000041362F
S11304700800020103020100000000000000000067
S1130480065F5F060000000007070007070000146E
S11304907F7F147F7F1400242E6B6B3A120000467A
S11304A06630180C666200307A4F5D377A48000473
S11304B007030000000000001C3E63410000000030
S11304C041633E1C000000082A3E1C1C3E2A08080A
S11304D0083E3E0808000000A0E06000000000089C
S11304E008080808080000000060600000000060C0
S11304F030180C060301003E7F594D7F3E00004238
S1130500427F7F40400000627359496F66000022B9
S11305106349497F360000181C16137F7F1000279B
S11305206745457D3900003C7E4B49793000000326
S11305306371190F070000367F49497F36000006B2
S11305404F49693F1E000000006C6C000000000071
S1130550A0EC6C00000000081C366341000000148D
S113056014141414140000004163361C0800000223
S11305700351590F0600003E7F415D5D1F1E007C44
S11305807E13137E7C0000417F7F49497F36001C27
S11305903E634141632200417F7F41637F1C0041F0
S11305A07F7F495D416300417F7F491D0103001C3A
S11305B03E6341517372007F7F08087F7F00000013
S11305C0417F7F41000000307040417F3F01004186
S11305D07F7F081C776300417F7F41406070007F0C
S11305E07F060C067F7F007F7F060C187F7F001C30
S11305F03E6341633E1C00417F7F49090F06001E94
S11306003F21717F5E0000417F7F19396F460026CC
S1130610674D597B32000003417F7F410300007F17
S11306207F40407F7F00001F3F60603F1F00007FCE
S11306307F3018307F7F0063771C081C77630007C6
S11306404F78784F0700006773594D476371000076
S11306507F7F41410000000103060C183060000058
S113066041417F7F000000080C0603060C0800804F
S113067080808080808080000003070400000020C8
S11306807454543C784000413F7F44447C380038E3
S11306907C44446C280000307848493F7F4000384F
S11306A07C54545C180000487E7F49030200009883
S11306B0BCA4A4F87C0400417F7F08047C7800007B
S11306C0447D7D4000000040C484FD7D0000004165
S11306D07F7F10386C440000417F7F400000007C25
S11306E07C0C180C7C78007C7C04047C780000383A
S11306F07C44447C38000084FCF8A4243C18001892
S11307003C24A4F8FC8400447C78441C1800004871
S11307105C54547424000000043E7F442400003CD4
S11307207C40403C7C40001C3C60603C1C00003C25
S11307307C6030607C3C00446C3810386C44009C15
S1130740BCA0A0FC7C00004C64745C4C64000008F9
S1130750083E774141000000000077770000004127
S113076041773E0808000002030103020301000070
S113077011241FBECFEFD4E0DEBFCDBF12E0A0E056
S1130780B1E0EAEDF3E202C005900D92AC34B1079A
S1130790D9F722E0ACE4B2E001C01D92AB35B20758
S11307A0E1F70E9457060C94EB110C94000081B3FE
S11307B0806181BB89E683BFEBE8F0E080818268D9
S11307C08083EAE8F0E080818961808385E090E0BD
S11307D0909381008093800082E090E09093870062
S11307E08093860008950F931F93CF93DF93E0E0E7
S11307F0F4E181E0808386EA8A95F1F700C01081F4
S11308000081D081C0811F92CF931F92DF931F92EA
S11308100F931F921F938AE091E09F938F930E94FE
S1130820360D8DB79EB70A960FB6F8949EBF0FBECD
S11308308DBF602F712F8D2F9C2FDF91CF911F9132
S11308400F9108950E94F30370934D0260934C023C
S113085008950E94BF0808958F929F92AF92BF920D
S1130860CF92DF92EF92FF9249015A0120E030E0EB
S113087040E050E40E94E40A6B017C0120E030E097
S113088040E050E4C501B4010E94E40A4B015C015C
S1130890A5019401C701B6010E9440080E943A0BC9
S11308A0FF90EF90DF90CF90BF90AF909F908F908C
S11308B008954F925F926F927F92BF92CF92DF9290
S11308C0EF92FF920F931F93CF93DF9300D000D04A
S11308D01F92CDB7DEB7162FB42E022F89836981FC
S11308E070E080E090E00E9495092B013C01612FAB
S11308F070E080E090E00E9495096B017C019B010F
S1130900AC01C301B2010E943F086A837B838C83DC
S11309109D836A817B818C819D8120E030E0A901E7
S11309200E946E0A1816ACF44A805B806C807D804D
S1130930602F70E080E090E00E949509A701960185
S11309400E943F089B01AC01C301B2010E9423092C
S113095025C06A817B818C819D8120E030E0A901E2
S11309600E941E098823BCF44A805B806C807D80D1
S11309706B2D70E080E090E00E9495099B01AC0132
S1130980C701B6010E943F089B01AC01C301B2013B
S11309900E94230903C060E070E0CB010F900F9028
S11309A00F900F900F90DF91CF911F910F91FF90B7
S11309B0EF90DF90CF90BF907F906F905F904F90BB
S11309C008954F925F926F927F928F929F92AF920F
S11309D0BF92CF92DF92EF92FF920F931F93CF9328
S11309E0DF93CDB7DEB760970FB6F894DEBF0FBEC6
S11309F0CDBF8C010E94F30369837A838B839C832C
S1130A008A812FEF40E060914D020E945904F80161
S1130A10608371838283938389812FEF40E06091A7
S1130A204C020E9459046B017C01F80164837583B4
S1130A308683978340805180628073804D825E827A
S1130A406F82788669877A878B879C879B01AC0144
S1130A50C301B2010E9429044B015C01F8016087C3
S1130A60718782879387A7019601C301B2010E940F
S1130A702C046B017C01F80164877587868797874E
S1130A806D877E878F87988B23EF34E045EB5FE398
S1130A900E946E0A88230CF0ADCF84E0F801808BAD
S1130AA02DEC3CEC4CE45EE3C701B6010E946E0AF7
S1130AB018160CF06AC02BED3FE049E45FE3C50172
S1130AC0B4010E946E0A1816B4F424EE3BEC46E11D
S1130AD050E4C501B4010E941E09882364F484E231
S1130AE091E09F938F930E94360D82E0F801808BF2
S1130AF00F900F904AC024EE3BEC46E150E4C50150
S1130B00B4010E946E0A181654F024EE3BEC46E140
S1130B1050ECC501B4010E941E0988235CF487E2ED
S1130B2091E09F938F930E94360DF801108A0F90E5
S1130B300F902BC024EE3BEC46E150ECC501B40110
S1130B400E946E0A1816B4F42BED3FE049E45FEB03
S1130B50C501B4010E941E09882364F48CE291E06B
S1130B609F938F930E94360D83E0F801808B0F9042
S1130B700F900BC081E391E09F938F930E94360DF9
S1130B8081E0F801808B0F900F9060960FB6F89477
S1130B90DEBF0FBECDBFDF91CF911F910F91FF90AC
S1130BA0EF90DF90CF90BF90AF909F908F907F9009
S1130BB06F905F904F900895EF92FF920F931F9361
S1130BC0CF93DF9387E391E00E944C0D0E94DB0CEE
S1130BD07C010E94E00CC0E0D0E000E010E020C006
S1130BE00E94DB0CFE01F85E808320812817B9F097
S1130BF099279F938F931F922F93DF93CF938DE425
S1130C0091E09F938F930E94360D0F5F1F4F8DB716
S1130C109EB708960FB6F8949EBF0FBE8DBF21965F
S1130C20C11598E0D907E0F2C7010E94E00CC0E0CA
S1130C30D0E0E12CF12C20C00E94DB0CFE01F85E18
S1130C4020812817C1F099279F938F931F922F9388
S1130C50DF93CF9386E891E09F938F930E94360DA4
S1130C608FEFE81AF80A8DB79EB708960FB6F89476
S1130C709EBF0FBE8DBF2196C11598E0D907E0F243
S1130C80FF92EF921F930F9383EC91E09F938F93C6
S1130C900E94360D0F900F900F900F900F900F90B1
S1130CA0DF91CF911F910F91FF90EF9008958FE105
S1130CB090E00E9430086BE378E087E398E00E94BC
S1130CC0EB0C0E94D70385B7806885BF80B787780F
S1130CD080BF80B7806280BF86B78C6086BF0E9469
S1130CE0DC050E9422048BEF81BB8BB780648BBF31
S1130CF085B7826085BF78940E94DF060E944B0707
S1130D000E945F070E94440780914F029091500215
S1130D100E94D907E0914F02F091500282E0808353
S1130D20E0914F02F09150021182E0914F02F09154
S1130D3050026081818170E090E00E940B0880E0A5
S1130D4090E00E94E104FBCF1F920F920FB60F9226
S1130D5011242F933F934F935F936F937F938F93BC
S1130D609F93AF93BF93EF93FF938AB78F7B8ABF11
S1130D7080914F02909150020E94200880934E026D
S1130D80FF91EF91BF91AF919F918F917F916F915F
S1130D905F914F913F912F910F900FBE0F901F9035
S1130DA018958093001281E28A95F1F70000089566
S1130DB08093001081E28A95F1F7000008958EEA8D
S1130DC00E94D80681EA0E94D8068AED0E94D806BD
S1130DD082E10E94D80688EC0E94D80688EA0E9424
S1130DE0D8068FE30E94D80685ED0E94D80680E8D5
S1130DF00E94D80681E80E94D80680E50E94D806A1
S1130E0089ED0E94D80681E20E94D80680E20E9401
S1130E10D80680E00E94D80680E40E94D8068BEDB4
S1130E200E94D80680E30E94D8068DEA0E94D80664
S1130E3080E00E94D80684EA0E94D80686EA0E94CE
S1130E40D8068FEA0E94D80608950F931F93CF9374
S1130E50DF93082F162FD42FC22F81E20E94D806C9
S1130E60802F0E94D806812F0E94D80682E20E9419
S1130E70D8068D2F0E94D8068C2F0E94D806DF91A9
S1130E80CF911F910F91089527E040E06FE780E034
S1130E900E9425070895CF93DF930E944407C0E082
S1130EA0D0E004C080E00E94D1062196C11584E000
S1130EB0D807C4F30E944407DF91CF91089580E2DC
S1130EC00E94D80680E00E94D80608958F929F92CF
S1130ED0AF92BF92DF92EF92FF920F931F93CF9343
S1130EE0DF937C014A015B01D22E00E010E04BC08D
S1130EF085E0D816A9F088E0D81225C0F701E00FE4
S1130F00F11FE081F0E0B097EE0FFF1FEE0FFF1F1F
S1130F10EE0FFF1FEC0FFD1FE958FB4F849122C019
S1130F20F701E00FF11F808190E08097FC01EE0F44
S1130F30FF1FEE0FFF1FE80FF91FEC0FFD1FE45614
S1130F40FD4F84910FC0F701E00FF11FE081F0E045
S1130F50B097EE0FFF1FEE0FFF1FEC0FFD1FE05EBB
S1130F60FE4F84910E94D106219602C0C0E0D0E0D9
S1130F708D2D90E0C817D9070CF4BACF80E00E94F9
S1130F80D1060F5F1F4FC801012E000CAA0BBB0B2B
S1130F9088159905AA05BB0548F3DF91CF911F91E8
S1130FA00F91FF90EF90DF90BF90AF909F908F9044
S1130FB008950E944B070E94440727E040E06FE732
S1130FC088E00E94250728E044E050E060E070E0FB
S1130FD08CE192E00E94660727E042E06FE788E038
S1130FE00E94250725E04AE050E060E070E081E2DD
S1130FF092E00E94660727E044E06FE788E00E94E1
S1131000250725E048E050E060E070E08CE292E0E3
S11310100E9466070895462F27E06FE70E94250780
S113102088E10E94D10688E10E94D1068EE70E94E1
S1131030D1068CE30E94D10688E10E94D10608956E
S1131040FC0180811F928F9385E392E09F938F939D
S11310500E94360D0F900F900F900F9080E008952E
S113106090BD89B988E18AB98EE880BD08955D9BF9
S1131070FECF8CB908955F9BFECF8CB10895505874
S1131080BB27AA270E9457080C94340A0E94260AF8
S113109038F00E942D0A20F039F49F3F19F426F409
S11310A00C94FC090EF4E095E7FB0C94F609E92F87
S11310B00E94450A58F3BA17620773078407950715
S11310C020F079F4A6F50C94670A0EF4E0950B2E43
S11310D0BA2FA02D0B01B90190010C01CA01A00186
S11310E01124FF27591B99F0593F50F4503E68F1E1
S11310F01A16F040A22F232F342F4427585FF3CF22
S1131100469537952795A795F0405395C9F77EF4F2
S11311101F16BA0B620B730B840BBAF09150A1F03B
S1131120FF0FBB1F661F771F881FC2F70EC0BA0FC1
S1131130621F731F841F48F4879577956795B79549
S1131140F7959E3F08F0B0CF9395880F08F0992744
S1131150EE0F9795879508950E94260A60F080E81F
S113116091E009F49EEF0E942D0A28F040E851E036
S113117071F45EEF0CC00C94FC090C94670AE92F1F
S1131180E0780E94450A40F3092E052AB1F3261798
S113119037074807590738F00E2E07F8E02569F09D
S11311A0E025E0640AC0EF6307F8009407FADB0166
S11311B0B9019D01DC01CA01AD01EF930E943A0916
S11311C00E94340A0E94EF085F91552339F02BEDF9
S11311D03FE049E450FD49EC0C9440080895DF9346
S11311E0DD27B92FBF7740E85FE3161617064807D7
S11311F05B0718F4D92F0E94730A9F938F937F93F0
S11312006F930E947A0BE0E7F0E00E94FF090E94CE
S1131210340A2F913F914F915F910E948A0ADD23F6
S113122051F09058A2EA2AED3FE049EC5FE3D07810
S11312305D270E945708DF910C94340A0E94D2095A
S113124008F481E008950E9437090C94340A0E943E
S11312502D0A58F00E94260A40F029F45F3F29F035
S11312600C94F60951110C94680A0C94FC090E9420
S1131270450A68F39923B1F3552391F3951B550B54
S1131280BB27AA2762177307840738F09F5F5F4F55
S1131290220F331F441FAA1FA9F335D00E2E3AF094
S11312A0E0E832D091505040E695001CCAF72BD0AC
S11312B0FE2F29D0660F771F881FBB1F26173707FD
S11312C04807AB07B0E809F0BB0B802DBF01FF272F
S11312D093585F4F3AF09E3F510578F00C94F6090D
S11312E00C94680A5F3FE4F3983ED4F386957795AF
S11312F06795B795F7959F5FC9F7880F911D9695E8
S1131300879597F90895E1E0660F771F881FBB1F43
S1131310621773078407BA0720F0621B730B840BF0
S1131320BA0BEE1F88F7E0950895E89409C097FB7F
S11313303EF490958095709561957F4F8F4F9F4FA8
S11313409923A9F0F92F96E9BB279395F6958795EC
S113135077956795B795F111F8CFFAF4BB0F11F4AF
S113136060FF1BC06F5F7F4F8F4F9F4F16C0882356
S113137011F096E911C0772321F09EE8872F762F8C
S113138005C0662371F096E8862F70E060E02AF0CD
S11313909A95660F771F881FDAF7880F96958795B9
S11313A097F90895990F0008550FAA0BE0E8FEEF8E
S11313B016161706E807F907C0F012161306E40715
S11313C0F50798F0621B730B840B950B39F40A260E
S11313D061F0232B242B252B21F408950A2609F4EC
S11313E0A140A6958FEF811D811D089597F99F67F0
S11313F080E870E060E008959FEF80EC0895DF934B
S1131400CF931F930F93FF92EF92DF927B018C0196
S1131410689406C0DA2EEF010E948A0AFE01E8945D
S1131420A5912591359145915591A6F3EF010E941F
S11314305708FE019701A801DA9469F7DF90EF904D
S1131440FF900F911F91CF91DF91089500240A948A
S11314501616170618060906089500240A9412168B
S11314601306140605060895092E0394000C11F4BE
S1131470882352F0BB0F40F4BF2B11F460FF04C06B
S11314806F5F7F4F8F4F9F4F089557FD9058440FC4
S1131490551F59F05F3F71F04795880F97FB991FCF
S11314A061F09F3F79F0879508951216130614068C
S11314B0551FF2CF4695F1DF08C016161706180619
S11314C0991FF1CF86957105610508940895E894F4
S11314D0BB2766277727CB0197F908950E94D20985
S11314E008F48FEF08959B01AC0160E070E080E8A0
S11314F09FE30C9423090E94260A38F00E942D0AC7
S113150020F0952311F00C94F6090C94FC09112495
S11315100C94680A0E94450A70F3959FC1F3950FD5
S113152050E0551F629FF001729FBB27F00DB11D63
S1131530639FAA27F00DB11DAA1F649F6627B00DF3
S1131540A11D661F829F2227B00DA11D621F739FDC
S1131550B00DA11D621F839FA00D611D221F749FEA
S11315603327A00D611D231F849F600D211D822F31
S1131570762F6A2F11249F5750409AF0F1F0882358
S11315804AF0EE0FFF1FBB1F661F771F881F915085
S11315905040A9F79E3F510580F00C94F6090C9435
S11315A0680A5F3FE4F3983ED4F386957795679590
S11315B0B795F795E7959F5FC1F7FE2B880F911DAF
S11315C09695879597F90895FA01EE0FFF1F3096C7
S11315D021053105A1F16115710561F48038BFE37E
S11315E09B0749F168949038810561F08038BFEF1A
S11315F09B0741F099234AF5FF3FE1053105210599
S113160019F1E8940894E795D901AA2329F4AB2F9A
S1131610BE2FF85FD0F310C0FF5F70F4A695E0F71B
S1131620F73950F019F0FF3A38F49F779F930DD0B3
S11316300F9007FC9058089546F00C94FC0960E064
S113164070E080E89FE308954FE79F775F934F939F
S11316503F932F930E940F0C2F913F914F915F91D5
S11316600E948B0C0C94860B19F416F40C94FC0950
S11316700C94B80B0E944D0AB8F39923C9F3B6F33E
S11316809F57550B87FF0E94C60B0024A0E640EA33
S1131690900180585695979528F4805C660F771FC3
S11316A0881F20F026173707480730F4621B730B96
S11316B0840B202931294A2BA695179407942025B9
S11316C031254A2758F7660F771F881F20F0261701
S11316D03707480730F4620B730B840B200D311D60
S11316E0411DA09581F7B901842F9158880F9695D3
S11316F0879508959B01AC010C948B0C29F416F08A
S11317000C94F6090C94670A0C94FC090E944D0A87
S1131710A8F39638A0F707F80F92E8942BE33AEA77
S113172048EB5FE70E948D0A0F920F920F924DB71C
S11317305EB70F920E94570CEDE9F0E00E94FF099A
S11317404F915F91EF91FF91E595EE1FFF1F49F0D7
S1131750FE57E0684427EE0F441FFA95E1F74195E0
S1131760550B0E94D10B0F9007FE0C94730A089539
S11317709F3F31F0915020F4879577956795B79501
S1131780880F911D9695879597F90895915050402B
S1131790660F771F881FD2F708950C94F6090C94EE
S11317A0B80B0E944D0AD8F39923C9F3940F511D25
S11317B0A3F39150504094F059F0882332F0660F0F
S11317C0771F881F91505040C1F79E3F51052CF759
S11317D0880F911D9695879597F908955F3FACF012
S11317E0983E9CF0BB27869577956795B79508F446
S11317F0B1609395C1F7BB0F58F711F460FFE8CFC0
S11318006F5F7F4F8F4F9F4FE3CF0C94680A16F0A2
S11318100C94B80B0C94FC0968940C94F6090E947F
S11318204D0AA8F39923C1F3AEF3DF93CF931F932B
S11318300F93FF92C92FDD2788232AF02197660F83
S1131840771F881FDAF720E030E040E85FEB9FE382
S1131850883920F0803E38F021968F770E94400826
S1131860E5ECF0E004C00E944008E2EFF0E00E94E2
S1131870FF098B01BE01EC01FB2E6F5771097595B1
S1131880771F880B990B0E94970928E132E741E3FF
S11318905FE30E948A0AAF2D9801AE01FF900F9179
S11318A01F91CF91DF910E9457080C94340AFA01DA
S11318B0DC01AA0FBB1F9B01AC01BF5728F42227F0
S11318C033274427507820C0B75190F4AB2F00241D
S11318D0469537952795011CA395D2F3002071F006
S11318E0220F331F441FB395DAF30ED00C943F0834
S11318F061307105A0E88A07B94630F49B01AC0158
S11319006627772788279078309621F020833183C3
S11319104283538308950E948A0A0C94340A8F9256
S11319209F92AF92BF92CF92DF92EF92FF92CF93AA
S1131930DF93EC01688179818A819B81611571054E
S11319408105910521F464E279ED8BE597E02DE1C1
S113195033EF41E050E00E94511149015A019B01CB
S1131960AC01A7EAB1E40E9470116B017C01ACEEFA
S1131970B4EFA50194010E947E11DC01CB018C0D12
S11319809D1DAE1DBF1DB7FF03C00197A109B0483F
S113199088839983AA83BB839F77DF91CF91FF903C
S11319A0EF90DF90CF90BF90AF909F908F9008956D
S11319B00E948F0C089580E091E00E948F0C08959E
S11319C0A0E0B0E08093000190930101A093020194
S11319D0B093030108950F931F93CF93DF93009760
S11319E031F46115710519F480E090E03AC08B017F
S11319F0EC016EE070E081E090E00E945D0FFC017C
S1131A00892B91F380E883830115110571F0138705
S1131A10028781E883838091510290915202892B3D
S1131A2021F4F0935202E09351022097C9F0D18738
S1131A30C087838182608383809153029091540292
S1131A40892B71F4F0935402E09353028091550270
S1131A5090915602892B21F4F0935602E09355029B
S1131A60CF01DF91CF911F910F910895A0E0B0E0D5
S1131A70ECE3FDE00C949311AE014B5F5F4FFA0170
S1131A8061917191AF0180915302909154020E942F
S1131A907C0DE2E00C94AF110F931F93CF93DF936F
S1131AA0E0915302F0915402238121FF1BC08C0169
S1131AB0D0E0C0E0F80181918F01609153027091F0
S1131AC05402DB011896ED91FC911997882331F0AB
S1131AD00995892B79F3DFEFCFEFECCF8AE00995F5
S1131AE0892B19F08FEF9FEF02C08D2F9C2FDF9170
S1131AF0CF911F910F910895ABE0B0E0E2E8FDE0D3
S1131B000C9483116C017B018A01FC0117821682FB
S1131B10838181FFCCC1CE0101963C01F601938102
S1131B20F70193FD859193FF81917F01882309F447
S1131B30BAC1853239F493FD859193FF81917F0178
S1131B40853229F4B60190E00E94B710E7CF912CBA
S1131B50212C312CFFE1F315D8F08B3279F038F4D5
S1131B60803279F08332A1F4232D20611DC08D329F
S1131B7061F0803369F4232D216016C0832D8260C7
S1131B80382EE32DE4603E2E2AC0F32DF8601DC0EC
S1131B9037FC2DC020ED280F2A3040F08E32B9F4E6
S1131BA036FC81C1232D2064322E19C036FE06C0B6
S1131BB08AE0989E200D1124922E11C0EAE02E9EF8
S1131BC0200D1124222EF32DF0623F2E08C08C36F6
S1131BD021F4832D8068382E02C0883641F4F70141
S1131BE093FD859193FF81917F018111B3CF982F4C
S1131BF09F7D9554933028F40C5F1F4F9FE3998386
S1131C000DC0833631F0833771F0833509F059C044
S1131C1021C0F801808189830E5F1F4F882483943B
S1131C20912C530113C02801F2E04F0E511CF8010E
S1131C30A080B18036FE03C0692D70E002C06FEF52
S1131C407FEFC5010E94AC104C018201F32DFF7798
S1131C503F2E16C0280122E0420E511CF801A0803C
S1131C60B18036FE03C0692D70E002C06FEF7FEFD4
S1131C70C5010E949A104C01F32DF0683F2E820199
S1131C8033FC1BC0822D90E088169906B0F4B6018F
S1131C9080E290E00E94B7102A94F4CFF50137FC5B
S1131CA0859137FE81915F01B60190E00E94B710E3
S1131CB021102A9421E0821A91088114910471F769
S1131CC0E8C0843611F0893641F5F80137FE07C0C3
S1131CD060817181828193810C5F1F4F08C0608194
S1131CE07181072E000C880B990B0E5F1F4FF32D8B
S1131CF0FF763F2E97FF09C090958095709561956A
S1131D007F4F8F4F9F4FF0683F2E2AE030E0A301B2
S1131D100E94F310882E861845C0853731F4232D90
S1131D202F7EB22E2AE030E025C0932D997FB92E64
S1131D308F36C1F018F4883579F0B5C0803719F0C2
S1131D40883721F0B0C0E92FE061BE2EB4FE0DC08B
S1131D50FB2DF460BF2E09C034FE0AC0292F266073
S1131D60B22E06C028E030E005C020E130E002C019
S1131D7020E132E0F801B7FE07C060817181828101
S1131D8093810C5F1F4F06C06081718180E090E0F9
S1131D900E5F1F4FA3010E94F310882E8618FB2D9F
S1131DA0FF773F2E36FE0DC0232D2E7FA22E8914E1
S1131DB058F434FE0BC032FC09C0832D8E7EA82E4D
S1131DC005C0B82CA32C03C0B82C01C0B92CA4FEA8
S1131DD00FC0FE01E80DF11D8081803321F49A2D9E
S1131DE0997EA92E09C0A2FE06C0B394B39404C080
S1131DF08A2D867809F0B394A3FC11C0A0FE06C016
S1131E00B21488F4280C922C9B180EC0B21460F4FF
S1131E10B60180E290E00E94B710B394F7CFB214F9
S1131E2018F42B1802C0982C212CA4FE10C0B60163
S1131E3080E390E00E94B710A2FE17C0A1FC03C08B
S1131E4088E790E002C088E590E0B6010CC08A2DD6
S1131E50867859F0A1FE02C08BE201C080E2A7FCA3
S1131E608DE2B60190E00E94B710891438F4B601EF
S1131E7080E390E00E94B7109A94F7CF8A94F3011C
S1131E80E80DF11D8081B60190E00E94B710811029
S1131E90F5CF222009F442CEB60180E290E00E9400
S1131EA0B7102A94F6CFF6018681978102C08FEF8E
S1131EB09FEF2B96E2E10C949F110F931F93CF9306
S1131EC0DF93869F8001879F100D969F100D11242C
S1131ED0C8010E94790FEC01009729F0A80160E085
S1131EE070E00E94A510CE01DF91CF911F910F9158
S1131EF008950F931F93CF93DF938230910510F4CD
S1131F0082E090E0E0915902F0915A0220E030E042
S1131F10A0E0B0E0309719F1408151810281138132
S1131F2048175907C8F08417950769F4109731F0DA
S1131F3012960C93129713961C9327C00093590280
S1131F4010935A0222C02115310519F04217530784
S1131F5018F49A01BD01EF01DF01F801DBCF21156F
S1131F603105F9F0281B390B2430310580F48A81BE
S1131F709B816115710521F0FB019383828304C069
S1131F8090935A0280935902FE01329644C0FE0196
S1131F90E20FF31F819391932250310939832883EF
S1131FA03AC02091570230915802232B41F42091DA
S1131FB00601309107013093580220935702209173
S1131FC00401309105012115310541F42DB73EB7C7
S1131FD04091080150910901241B350BE0915702EF
S1131FE0F0915802E217F307A0F42E1B3F0B2817B9
S1131FF0390778F0AC014E5F5F4F2417350748F07E
S11320004E0F5F1F50935802409357028193919350
S113201002C0E0E0F0E0CF01DF91CF911F910F917A
S11320200895CF93DF93009709F481C0FC013297A0
S113203013821282A0915902B0915A02109781F42E
S113204020813181820F931F2091570230915802D1
S11320502817390751F5F0935802E093570267C0E7
S1132060ED0120E030E0CE17DF0740F44A815B81C8
S11320709E0141155105F1F0EA01F5CFD383C283E6
S113208040815181840F951FC817D90759F488815D
S11320909981840F951F0296918380838A819B8105
S11320A0938382832115310529F4F0935A02E09336
S11320B059023DC0E901FB83EA8349915991C40F58
S11320C0D51FEC17FD0761F480819181840F951F62
S11320D00296E90199838883828193819B838A8311
S11320E0E0E0F0E012968D919C911397009719F01F
S11320F0FD01DC01F7CF8D919C9111979D012E5F1D
S11321003F4F820F931F2091570230915802281796
S1132110390769F4309729F410925A02109259023F
S113212002C013821282B0935802A0935702DF9127
S1132130CF910895FC010590615070400110D8F7CB
S1132140809590958E0F9F1F0895DC0101C06D93BB
S113215041505040E0F70895FC01615070400190F7
S11321600110D8F7809590958E0F9F1F08950F93B7
S11321701F93CF93DF93FB01238121FD03C08FEFD6
S11321809FEF2CC022FF16C04681578124813581E0
S11321904217530744F4A081B1819D012F5F3F4F43
S11321A0318320838C93268137812F5F3F4F378380
S11321B0268314C08B01EC01FB010084F185E02D22
S11321C00995892BE1F6D80116968D919C91179764
S11321D0019617969C938E931697CE01DF91CF911B
S11321E01F910F910895FA01AA27283051F1203147
S11321F081F1E8946F936E7F6E5F7F4F8F4F9F4F97
S1132200AF4FB1E03ED0B4E03CD0670F781F891FD8
S11322109A1FA11D680F791F8A1F911DA11D6A0FA6
S1132220711D811D911DA11D20D009F468943F9159
S11322302AE0269F11243019305D3193DEF6CF0158
S11322400895462F4770405D4193B3E00FD0C9F71E
S1132250F6CF462F4F70405D4A3318F0495D31FD8B
S11322604052419302D0A9F7EACFB4E0A6959795DE
S1132270879577956795BA95C9F7009761057105B4
S113228008959B01AC010A2E0694579547953795FE
S11322902795BA95C9F7620F731F841F951FA01D58
S11322A00895052E97FB1EF400940E94681157FDB3
S11322B007D00E94BA1107FC03D04EF40C946811A5
S11322C050954095309521953F4F4F4F5F4F08955E
S11322D090958095709561957F4F8F4F9F4F08958E
S11322E00E94DC11A59F900DB49F900DA49F800DBA
S11322F0911D11240895B7FF0C9470110E94701160
S1132300821B930B08952F923F924F925F926F928C
S11323107F928F929F92AF92BF92CF92DF92EF9271
S1132320FF920F931F93CF93DF93CDB7DEB7CA1BF2
S1132330DB0B0FB6F894DEBF0FBECDBF09942A881D
S1132340398848885F846E847D848C849B84AA84C5
S1132350B984C884DF80EE80FD800C811B81AA8152
S1132360B981CE0FD11D0FB6F894DEBF0FBECDBF1D
S1132370ED010895A1E21A2EAA1BBB1BFD010DC09D
S1132380AA1FBB1FEE1FFF1FA217B307E407F50721
S113239020F0A21BB30BE40BF50B661F771F881FFD
S11323A0991F1A9469F760957095809590959B0193
S11323B0AC01BD01CF010895A29FB001B39FC0013C
S11323C0A39F700D811D1124911DB29F700D811D5D
S10D23D01124911D0895F894FFCF25
S11323DA0100000000005B022000253032582C2046
S11323EA253032582C20253032582C2025303258AA
S11323FA200D0A005550004C45467400444F574E70
S113240A005249474854005374617274696E6720D4
S113241A5352414D20746573742E2E2E00577269DF
S113242A7465207068617365206572726F723A20F0
S113243A6578745F72616D5B2534645D203D202587
S113244A303258202873686F756C642062652025C1
S113245A303258290A0052657472696576616C20B3
S113246A7068617365206572726F723A2065787458
S113247A5F72616D5B2534645D203D2025303258DE
S113248A202873686F756C64206265202530325881
S113249A290A005352414D207465737420636F6D89
S11324AA706C657465642077697468200A253464DD
S11324BA206572726F727320696E2077726974650F
S11324CA20706861736520616E64200A2534642073
S11324DA6572726F727320696E20726574726965AF
S11324EA76616C2070686173650A0A004D656E75C1
S11324FA0053746172742067616D65005365747466
S113250A696E677300257520726F7720697320736B
S10F251A656C6563746564200D0A0000A4
S9030000FC
