:100000000C9490000C94AD000C94AD000C94AD00D9
:100010000C94AD000C94AD000C94AD000C94AD00AC
:100020000C94AD000C94AD000C94AD000C94AD009C
:100030000C94AD000C94AD000C94AD000C94AD008C
:100040000C94AD000C94AD000C94AD000C94AD007C
:100050000C94AD000C94AD000C94AD000C94AD006C
:100060000C94AD000C94AD000C94AD000C94AD005C
:10007000084AD73B3BCE016E84BCBFFDC12F3D6C0F
:1000800074319ABD56833DDA3D00C77F11BED9E475
:10009000BB4C3E916BAAAABE000000803F076342A2
:1000A00036B79BD8A71A39685618AEBAAB558C1D0F
:1000B0003CB7CC5763BD6DEDFD753EF6177231BF91
:1000C000000000803F08000000BE922449123EABB1
:1000D000AAAA2ABECDCCCC4C3E00000080BEABAA62
:1000E000AAAA3E00000000BF000000803F00000000
:1000F0000000084178D3BB4387D1133D190E3CC3A0
:10010000BD4282AD2B3E68EC8276BED98FE1A93E1E
:100110004C80EFFFBE01C4FF7F3F000000000000E5
:1001200011241FBECFEFD4E0DEBFCDBF11E0A0E0B1
:10013000B1E0E6E3F7E102C005900D92A433B10708
:10014000D9F721E0A4E3B1E001C01D92A034B207C9
:10015000E1F70E94A0020C94990B0C9400005D9BA7
:10016000FECF8CB908955F9BFECF8CB1089590BDF2
:1001700089B988E18AB98EE880BD0895E0E0F4E1AC
:1001800081E0808386E692E00197F1F700007081BC
:10019000608180819081089581B3806181BB89E60F
:1001A00083BFEBE8F0E0808182688083EAE8F0E0DA
:1001B00080818961808385E090E0909381008093C5
:1001C000800082E090E090938700809386000895FD
:1001D0000E94BE00709335016093340108950E941F
:1001E0005C0308958F929F92AF92BF92CF92DF925D
:1001F000EF92FF9249015A0120E030E040E050E4E4
:100200000E9481056B017C0120E030E040E050E479
:10021000C501B4010E9481054B015C01A501940157
:10022000C701B6010E94DD020E94D705FF90EF9042
:10023000DF90CF90BF90AF909F908F9008958F9256
:100240009F92AF92BF92EF92FF920F931F93CF9323
:10025000DF9300D000D01F92CDB7DEB7E62E042F7B
:10026000122F8983698170E080E090E00E9434045D
:100270004B015C01F12CB7010F2C000C880B990B82
:100280000E9434049B01AC01C501B4010E94DC0250
:100290006A837B838C839D836A817B818C819D8132
:1002A00020E030E0A9010E940B051816ACF48A800A
:1002B0009B80AC80BD80612F70E06E197F09072E96
:1002C000000C880B990B0E9434049B01AC01C50102
:1002D000B4010E94C00322C06A817B818C819D8110
:1002E00020E030E0A9010E94BB038823A4F48A80A7
:1002F0009B80AC80BD80B701601B7109072E000C8C
:10030000880B990B0E9434049B01AC01C501B40118
:100310000E94C00303C060E070E0CB010F900F901B
:100320000F900F900F90DF91CF911F910F91FF9041
:10033000EF90BF90AF909F908F9008954F925F92F3
:100340006F927F928F929F92AF92BF92CF92DF92E5
:10035000EF92FF92CF93DF93EC010E94BE00B62E86
:10036000872F2FEF40E0609135010E941F016B0144
:100370007C01688379838A839B832FEF40E06091BF
:1003800034018B2D0E941F014B015C016C837D8326
:100390008E839F839B01AC01C701B6010E94EF00D1
:1003A0002B013C01688779878A879B87A501940187
:1003B000C701B6010E94F2006C877D878E879F87F8
:1003C00024E0288B2DEC3CEC4CE45EE30E940B0512
:1003D00018160CF046C02BED3FE049E45FE3C30183
:1003E000B2010E940B0518166CF424EE3BEC46E1BA
:1003F00050E4C301B2010E94BB0388231CF482E0D5
:10040000888B2FC024EE3BEC46E150E4C301B201DF
:100410000E940B05181654F024EE3BEC46E150EC1C
:10042000C301B2010E94BB03882314F4188A19C0C7
:1004300024EE3BEC46E150ECC301B2010E940B05F7
:1004400018166CF42BED3FE049E45FEBC301B201F9
:100450000E94BB0388231CF483E0888B02C081E0E8
:10046000888BCE01DF91CF91FF90EF90DF90CF90FE
:10047000BF90AF909F908F907F906F905F904F90C4
:1004800008950E94BE0008958093001008958EEA9A
:1004900090E00E94440281EA90E00E9444028AEDCA
:1004A00090E00E94440282E190E00E94440288ECC5
:1004B00090E00E94440288EA90E00E9444028FE3A8
:1004C00090E00E94440285ED90E00E94440280E8A2
:1004D00090E00E94440281E890E00E94440280E59E
:1004E00090E00E94440289ED90E00E94440281E283
:1004F00090E00E94440280E290E00E94440282E088
:1005000090E00E9444028BED90E00E94440280E360
:1005100090E00E9444028DEA90E00E94440280E054
:1005200090E00E94440284EA90E00E94440286EA3D
:1005300090E00E9444028FEA90E00E9444020895F5
:10054000CF93DF93CDB7DEB761970FB6F894DEBFD8
:100550000FBECDBF8FE190E00E94B70063EB70E06B
:100560008FEA90E00E942C070E94CC000E94470274
:1005700085B7806885BF80B7877880BF80B7806285
:1005800080BF0E94E800CE0101960E949E010E9459
:10059000410229891F929F931F928F931F922F933D
:1005A00086E091E09F938F930E9477070FB6F894AF
:1005B000DEBF0FBECDBFE7CF5058BB27AA270E9492
:1005C000F4020C94D1040E94C30438F00E94CA04BF
:1005D00020F039F49F3F19F426F40C9499040EF49A
:1005E000E095E7FB0C949304E92F0E94E20458F392
:1005F000BA17620773078407950720F079F4A6F508
:100600000C9404050EF4E0950B2EBA2FA02D0B01CF
:10061000B90190010C01CA01A0011124FF27591B47
:1006200099F0593F50F4503E68F11A16F040A22F4D
:10063000232F342F4427585FF3CF469537952795BE
:10064000A795F0405395C9F77EF41F16BA0B620BBD
:10065000730B840BBAF09150A1F0FF0FBB1F661F04
:10066000771F881FC2F70EC0BA0F621F731F841F47
:1006700048F4879577956795B795F7959E3F08F06D
:10068000B0CF9395880F08F09927EE0F979587952F
:1006900008950E94C30460F080E891E009F49EEFA1
:1006A0000E94CA0428F040E851E071F45EEF0CC0EB
:1006B0000C9499040C940405E92FE0780E94E2045C
:1006C00040F3092E052AB1F32617370748075907C3
:1006D00038F00E2E07F8E02569F0E025E0640AC046
:1006E000EF6307F8009407FADB01B9019D01DC0113
:1006F000CA01AD01EF930E94D7030E94D1040E946A
:100700008C035F91552339F02BED3FE049E450FD18
:1007100049EC0C94DD020895DF93DD27B92FBF77F4
:1007200040E85FE31616170648075B0718F4D92F51
:100730000E9410059F938F937F936F930E941706DB
:10074000E0E7F0E00E949C040E94D1042F913F91C9
:100750004F915F910E942705DD2351F09058A2EA46
:100760002AED3FE049EC5FE3D0785D270E94F40278
:10077000DF910C94D1040E946F0408F481E0089585
:100780000E94D4030C94D1040E94CA0458F00E9421
:10079000C30440F029F45F3F29F00C9493045111F5
:1007A0000C9405050C9499040E94E20468F39923C3
:1007B000B1F3552391F3951B550BBB27AA2762175D
:1007C0007307840738F09F5F5F4F220F331F441F6A
:1007D000AA1FA9F335D00E2E3AF0E0E832D091509E
:1007E0005040E695001CCAF72BD0FE2F29D0660F8B
:1007F000771F881FBB1F261737074807AB07B0E8CE
:1008000009F0BB0B802DBF01FF2793585F4F3AF0D3
:100810009E3F510578F00C9493040C9405055F3FBE
:10082000E4F3983ED4F3869577956795B795F79559
:100830009F5FC9F7880F911D9695879597F9089541
:10084000E1E0660F771F881FBB1F621773078407DD
:10085000BA0720F0621B730B840BBA0BEE1F88F7EC
:10086000E0950895E89409C097FB3EF49095809533
:10087000709561957F4F8F4F9F4F9923A9F0F92F66
:1008800096E9BB279395F695879577956795B795E4
:10089000F111F8CFFAF4BB0F11F460FF1BC06F5FCA
:1008A0007F4F8F4F9F4F16C0882311F096E911C0DC
:1008B000772321F09EE8872F762F05C0662371F0FD
:1008C00096E8862F70E060E02AF09A95660F771F11
:1008D000881FDAF7880F9695879597F90895990FED
:1008E0000008550FAA0BE0E8FEEF16161706E807FA
:1008F000F907C0F012161306E407F50798F0621B1B
:10090000730B840B950B39F40A2661F0232B242BEF
:10091000252B21F408950A2609F4A140A6958FEF0E
:10092000811D811D089597F99F6780E870E060E060
:1009300008959FEF80EC0895DF93CF931F930F935B
:10094000FF92EF92DF927B018C01689406C0DA2E51
:10095000EF010E942705FE01E894A59125913591AC
:1009600045915591A6F3EF010E94F402FE01970113
:10097000A801DA9469F7DF90EF90FF900F911F9133
:10098000CF91DF91089500240A94161617061806D1
:100990000906089500240A94121613061406050683
:1009A0000895092E0394000C11F4882352F0BB0F14
:1009B00040F4BF2B11F460FF04C06F5F7F4F8F4F77
:1009C0009F4F089557FD9058440F551F59F05F3FB2
:1009D00071F04795880F97FB991F61F09F3F79F061
:1009E00087950895121613061406551FF2CF4695E3
:1009F000F1DF08C0161617061806991FF1CF869565
:100A00007105610508940895E894BB276627772748
:100A1000CB0197F908950E946F0408F48FEF0895B1
:100A20009B01AC0160E070E080E89FE30C94C003A0
:100A30000E94C30438F00E94CA0420F0952311F0EC
:100A40000C9493040C94990411240C9405050E94B1
:100A5000E20470F3959FC1F3950F50E0551F629F1C
:100A6000F001729FBB27F00DB11D639FAA27F00D07
:100A7000B11DAA1F649F6627B00DA11D661F829F2E
:100A80002227B00DA11D621F739FB00DA11D621F13
:100A9000839FA00D611D221F749F3327A00D611D30
:100AA000231F849F600D211D822F762F6A2F112412
:100AB0009F5750409AF0F1F088234AF0EE0FFF1F45
:100AC000BB1F661F771F881F91505040A9F79E3F9C
:100AD000510580F00C9493040C9405055F3FE4F3FA
:100AE000983ED4F3869577956795B795F795E795F2
:100AF0009F5FC1F7FE2B880F911D9695879597F9FB
:100B00000895FA01EE0FFF1F309621053105A1F17E
:100B10006115710561F48038BFE39B0749F1689462
:100B20009038810561F08038BFEF9B0741F0992331
:100B30004AF5FF3FE1053105210519F1E8940894D4
:100B4000E795D901AA2329F4AB2FBE2FF85FD0F384
:100B500010C0FF5F70F4A695E0F7F73950F019F078
:100B6000FF3A38F49F779F930DD00F9007FC905871
:100B7000089546F00C94990460E070E080E89FE3EB
:100B800008954FE79F775F934F933F932F930E9472
:100B9000AC062F913F914F915F910E9428070C94D2
:100BA000230619F416F40C9499040C9455060E942B
:100BB000EA04B8F39923C9F3B6F39F57550B87FF9F
:100BC0000E9463060024A0E640EA900180585695F2
:100BD000979528F4805C660F771F881F20F02617F2
:100BE0003707480730F4621B730B840B2029312927
:100BF0004A2BA69517940794202531254A2758F7A4
:100C0000660F771F881F20F026173707480730F434
:100C1000620B730B840B200D311D411DA09581F7D4
:100C2000B901842F9158880F9695879508959B0157
:100C3000AC010C94280729F416F00C9493040C943E
:100C400004050C9499040E94EA04A8F39638A0F7CE
:100C500007F80F92E8942BE33AEA48EB5FE70E942B
:100C60002A050F920F920F924DB75EB70F920E9416
:100C7000F406EDE9F0E00E949C044F915F91EF9142
:100C8000FF91E595EE1FFF1F49F0FE57E0684427EE
:100C9000EE0F441FFA95E1F74195550B0E946E0641
:100CA0000F9007FE0C94100508959F3F31F091506E
:100CB00020F4879577956795B795880F911D969540
:100CC000879597F9089591505040660F771F881FB8
:100CD000D2F708950C9493040C9455060E94EA04EC
:100CE000D8F39923C9F3940F511DA3F391505040A9
:100CF00094F059F0882332F0660F771F881F9150C7
:100D00005040C1F79E3F51052CF7880F911D9695D5
:100D1000879597F908955F3FACF0983E9CF0BB270C
:100D2000869577956795B79508F4B1609395C1F767
:100D3000BB0F58F711F460FFE8CF6F5F7F4F8F4F05
:100D40009F4FE3CF0C94050516F00C9455060C94B8
:100D5000990468940C9493040E94EA04A8F39923DC
:100D6000C1F3AEF3DF93CF931F930F93FF92C92F7D
:100D7000DD2788232AF02197660F771F881FDAF76F
:100D800020E030E040E85FEB9FE3883920F0803ED0
:100D900038F021968F770E94DD02E5ECF0E004C088
:100DA0000E94DD02E2EFF0E00E949C048B01BE0194
:100DB000EC01FB2E6F5771097595771F880B990B06
:100DC0000E94340428E132E741E35FE30E942705F3
:100DD000AF2D9801AE01FF900F911F91CF91DF9140
:100DE0000E94F4020C94D104FA01DC01AA0FBB1F8B
:100DF0009B01AC01BF5728F42227332744275078A2
:100E000020C0B75190F4AB2F002446953795279515
:100E1000011CA395D2F3002071F0220F331F441F51
:100E2000B395DAF30ED00C94DC0261307105A0E8C2
:100E30008A07B94630F49B01AC01662777278827DB
:100E40009078309621F02083318342835383089534
:100E50000E9427050C94D1040F931F93CF93DF9327
:100E6000009731F46115710519F480E090E03AC003
:100E70008B01EC016EE070E081E090E00E946E0971
:100E8000FC01892B91F380E883830115110571F032
:100E90001387028781E8838380913601909137011F
:100EA000892B21F4F0933701E09336012097C9F0A4
:100EB000D187C0878381826083838091380190913C
:100EC0003901892B71F4F0933901E0933801809155
:100ED0003A0190913B01892B21F4F0933B01E0937F
:100EE0003A01CF01DF91CF911F910F910895A0E0BA
:100EF000B0E0EDE7F7E00C94720BAE014B5F5F4F93
:100F0000FA0161917191AF0180913801909139019D
:100F10000E948D07E2E00C948E0BABE0B0E0E3E9B9
:100F2000F7E00C94620B6C017B018A01FC011782D3
:100F30001682838181FFCCC1CE0101963C01F6016E
:100F40009381F70193FD859193FF81917F01882320
:100F500009F4BAC1853239F493FD859193FF8191EB
:100F60007F01853229F4B60190E00E94C80AE7CFDC
:100F7000912C212C312CFFE1F315D8F08B3279F034
:100F800038F4803279F08332A1F4232D20611DC022
:100F90008D3261F0803369F4232D216016C0832DDA
:100FA0008260382EE32DE4603E2E2AC0F32DF860D7
:100FB0001DC037FC2DC020ED280F2A3040F08E32A6
:100FC000B9F436FC81C1232D2064322E19C036FEBF
:100FD00006C08AE0989E200D1124922E11C0EAE0EE
:100FE0002E9E200D1124222EF32DF0623F2E08C0DC
:100FF0008C3621F4832D8068382E02C0883641F467
:10100000F70193FD859193FF81917F018111B3CF0A
:10101000982F9F7D9554933028F40C5F1F4F9FE3CA
:1010200099830DC0833631F0833771F0833509F031
:1010300059C021C0F801808189830E5F1F4F882429
:101040008394912C530113C02801F2E04F0E511CE0
:10105000F801A080B18036FE03C0692D70E002C0A7
:101060006FEF7FEFC5010E94BD0A4C018201F32D95
:10107000FF773F2E16C0280122E0420E511CF801D6
:10108000A080B18036FE03C0692D70E002C06FEF12
:101090007FEFC5010E94AB0A4C01F32DF0683F2E93
:1010A000820133FC1BC0822D90E088169906B0F4B3
:1010B000B60180E290E00E94C80A2A94F4CFF501BC
:1010C00037FC859137FE81915F01B60190E00E9467
:1010D000C80A21102A9421E0821A910881149104EF
:1010E00071F7E8C0843611F0893641F5F80137FE12
:1010F00007C060817181828193810C5F1F4F08C09E
:1011000060817181072E000C880B990B0E5F1F4FB9
:10111000F32DFF763F2E97FF09C09095809570952F
:1011200061957F4F8F4F9F4FF0683F2E2AE030E050
:10113000A3010E94040B882E861845C0853731F420
:10114000232D2F7EB22E2AE030E025C0932D997FEB
:10115000B92E8F36C1F018F4883579F0B5C08037D4
:1011600019F0883721F0B0C0E92FE061BE2EB4FE3F
:101170000DC0FB2DF460BF2E09C034FE0AC0292F1C
:101180002660B22E06C028E030E005C020E130E045
:1011900002C020E132E0F801B7FE07C06081718132
:1011A000828193810C5F1F4F06C06081718180E056
:1011B00090E00E5F1F4FA3010E94040B882E86183B
:1011C000FB2DFF773F2E36FE0DC0232D2E7FA22E46
:1011D000891458F434FE0BC032FC09C0832D8E7E76
:1011E000A82E05C0B82CA32C03C0B82C01C0B92C64
:1011F000A4FE0FC0FE01E80DF11D8081803321F4B3
:101200009A2D997EA92E09C0A2FE06C0B394B3946C
:1012100004C08A2D867809F0B394A3FC11C0A0FE07
:1012200006C0B21488F4280C922C9B180EC0B2147D
:1012300060F4B60180E290E00E94C80AB394F7CF50
:10124000B21418F42B1802C0982C212CA4FE10C044
:10125000B60180E390E00E94C80AA2FE17C0A1FC7C
:1012600003C088E790E002C088E590E0B6010CC0BA
:101270008A2D867859F0A1FE02C08BE201C080E27F
:10128000A7FC8DE2B60190E00E94C80A891438F4E8
:10129000B60180E390E00E94C80A9A94F7CF8A943E
:1012A000F301E80DF11D8081B60190E00E94C80AAB
:1012B0008110F5CF222009F442CEB60180E290E001
:1012C0000E94C80A2A94F6CFF6018681978102C04F
:1012D0008FEF9FEF2B96E2E10C947E0B0F931F9301
:1012E000CF93DF93869F8001879F100D969F100DEF
:1012F0001124C8010E948A09EC01009729F0A80175
:1013000060E070E00E94B60ACE01DF91CF911F919C
:101310000F9108950F931F93CF93DF938230910520
:1013200010F482E090E0E0913E01F0913F0120E076
:1013300030E0A0E0B0E0309719F1408151810281A6
:10134000138148175907C8F08417950769F4109757
:1013500031F012960C93129713961C9327C00093AA
:101360003E0110933F0122C02115310519F04217AB
:10137000530718F49A01BD01EF01DF01F801DBCF3B
:1013800021153105F9F0281B390B2430310580F483
:101390008A819B816115710521F0FB019383828312
:1013A00004C090933F0180933E01FE01329644C0F9
:1013B000FE01E20FF31F819391932250310939838B
:1013C00028833AC020913C0130913D01232B41F408
:1013D000209102013091030130933D0120933C01A3
:1013E00020910001309101012115310541F42DB703
:1013F0003EB74091040150910501241B350BE0914B
:101400003C01F0913D01E217F307A0F42E1B3F0BC6
:101410002817390778F0AC014E5F5F4F2417350766
:1014200048F04E0F5F1F50933D0140933C01819364
:10143000919302C0E0E0F0E0CF01DF91CF911F91E6
:101440000F910895CF93DF93009709F481C0FC01B9
:10145000329713821282A0913E01B0913F01109702
:1014600081F420813181820F931F20913C013091C2
:101470003D012817390751F5F0933D01E0933C01F8
:1014800067C0ED0120E030E0CE17DF0740F44A816D
:101490005B819E0141155105F1F0EA01F5CFD3833F
:1014A000C28340815181840F951FC817D90759F411
:1014B00088819981840F951F0296918380838A8108
:1014C0009B81938382832115310529F4F0933F0199
:1014D000E0933E013DC0E901FB83EA8349915991C4
:1014E000C40FD51FEC17FD0761F480819181840F33
:1014F000951F0296E90199838883828193819B835A
:101500008A83E0E0F0E012968D919C91139700970A
:1015100019F0FD01DC01F7CF8D919C9111979D0190
:101520002E5F3F4F820F931F20913C0130913D0170
:101530002817390769F4309729F410923F01109267
:101540003E0102C013821282B0933D01A0933C0180
:10155000DF91CF910895FC0105906150704001101A
:10156000D8F7809590958E0F9F1F0895DC0101C0DC
:101570006D9341505040E0F70895FC016150704078
:1015800001900110D8F7809590958E0F9F1F0895B8
:101590000F931F93CF93DF93FB01238121FD03C0A2
:1015A0008FEF9FEF2CC022FF16C046815781248108
:1015B00035814217530744F4A081B1819D012F5F0B
:1015C0003F4F318320838C93268137812F5F3F4F9C
:1015D0003783268314C08B01EC01FB010084F18565
:1015E000E02D0995892BE1F6D80116968D919C91F5
:1015F0001797019617969C938E931697CE01DF91BD
:10160000CF911F910F910895FA01AA27283051F127
:10161000203181F1E8946F936E7F6E5F7F4F8F4F23
:101620009F4FAF4FB1E03ED0B4E03CD0670F781F82
:10163000891F9A1FA11D680F791F8A1F911DA11D67
:101640006A0F711D811D911DA11D20D009F46894A0
:101650003F912AE0269F11243019305D3193DEF648
:10166000CF010895462F4770405D4193B3E00FD0FE
:10167000C9F7F6CF462F4F70405D4A3318F0495DE9
:1016800031FD4052419302D0A9F7EACFB4E0A695CC
:101690009795879577956795BA95C9F700976105EE
:1016A000710508959B01AC010A2E06945795479544
:1016B00037952795BA95C9F7620F731F841F951F39
:1016C000A01D08952F923F924F925F926F927F924A
:1016D0008F929F92AF92BF92CF92DF92EF92FF9242
:1016E0000F931F93CF93DF93CDB7DEB7CA1BDB0BEE
:1016F0000FB6F894DEBF0FBECDBF09942A88398893
:1017000048885F846E847D848C849B84AA84B98499
:10171000C884DF80EE80FD800C811B81AA81B981A5
:10172000CE0FD11D0FB6F894DEBF0FBECDBFED01B9
:061730000895F894FFCFBC
:10173600000040012000706F733A2025642C206C55
:1017460065667420736C696465723A2564202C2082
:10175600726967687420736C696465723A202564DF
:04176600200D0A0048
:00000001FF
